:1000000000308A0099280000FF00030E8301A10040
:100010007F08A0000A08A7008A01A00E0408A20019
:100020007708A3007808A4007908A5007A08A6003C
:10003000831383120B1E1E288B182F28220884007E
:100040002308F7002408F8002508F9002608FA001C
:1000500027088A00210E8300FF0E7F0E09008B10F7
:100060000B168B108A111E283A3084008313000867
:10007000031947280230F800F701F70B3D28F80B69
:100080003C289730F700F70B4328800B3A280800EC
:1000900036088400831337188317003000040319CF
:1000A000572800080C1E52289900840A4D28433016
:1000B0000C1E582899000530BC0030300C1E5E28FC
:1000C0009900BC0B5D283808BC005730BD00BD1B33
:1000D0007A280F30F7003C0EF7050A307702031834
:1000E00074283030F70776283D08F70777080C1E8C
:1000F000772899000F30BC050A303C02031882288B
:1001000030308428BD133D08BC073C080C1E8628EF
:10011000990053300C1E8A28990039080C1E8E282D
:10012000990046300C1E922899000130BA00342004
:10013000080003081F398300673083169900A23036
:100140009800903083129800AE013130AF00B001BA
:10015000B101B201B401B30107309F0083134D30E8
:10016000A8003030A900AA00AB003130AC00AD01CE
:100170008316011783128B100B160A30BA00342035
:1001800001308316860083120610831686008312C0
:10019000861083168600831206118316860083124A
:1001A0008611831686008312061283168600831238
:1001B0008612831686008312061383168600831226
:1001C0008613003083168500831205108316850080
:1001D000831285108316850083120511831685000E
:1001E00083128511831685008312051283168500FC
:1001F00083128512831685008312051383168500EA
:10020000831285130A30BA003420B50135084A3C00
:10021000031C1429B7012830B6002E08B8002F0897
:10022000B9004820B50A0629B7012830B6002E08C3
:0C023000B8002F08B90048201429630012
:02400E00023F6F
:00000001FF
;PIC16F627A
;CRC=03AE  CREATED="05-ago-22 19:46"
